{
  "contractName": "ZigZag",
  "abi": [
    {
      "constant": true,
      "inputs": [
        {
          "name": "",
          "type": "uint256"
        }
      ],
      "name": "bets",
      "outputs": [
        {
          "name": "player",
          "type": "address"
        },
        {
          "name": "bet_amount",
          "type": "uint256"
        },
        {
          "name": "result_place",
          "type": "uint8"
        },
        {
          "name": "win_amount",
          "type": "uint256"
        },
        {
          "name": "time",
          "type": "uint256"
        }
      ],
      "payable": false,
      "stateMutability": "view",
      "type": "function"
    },
    {
      "constant": true,
      "inputs": [],
      "name": "gameMinBet",
      "outputs": [
        {
          "name": "",
          "type": "uint256"
        }
      ],
      "payable": false,
      "stateMutability": "view",
      "type": "function"
    },
    {
      "constant": true,
      "inputs": [
        {
          "name": "",
          "type": "uint8"
        }
      ],
      "name": "placeBets",
      "outputs": [
        {
          "name": "winProbability",
          "type": "uint8"
        },
        {
          "name": "prizeRate",
          "type": "uint8"
        }
      ],
      "payable": false,
      "stateMutability": "view",
      "type": "function"
    },
    {
      "constant": false,
      "inputs": [],
      "name": "renounceOwnership",
      "outputs": [],
      "payable": false,
      "stateMutability": "nonpayable",
      "type": "function"
    },
    {
      "constant": true,
      "inputs": [],
      "name": "owner",
      "outputs": [
        {
          "name": "",
          "type": "address"
        }
      ],
      "payable": false,
      "stateMutability": "view",
      "type": "function"
    },
    {
      "constant": true,
      "inputs": [],
      "name": "isOwner",
      "outputs": [
        {
          "name": "",
          "type": "bool"
        }
      ],
      "payable": false,
      "stateMutability": "view",
      "type": "function"
    },
    {
      "constant": true,
      "inputs": [],
      "name": "gameMaxBet",
      "outputs": [
        {
          "name": "",
          "type": "uint256"
        }
      ],
      "payable": false,
      "stateMutability": "view",
      "type": "function"
    },
    {
      "constant": true,
      "inputs": [],
      "name": "currentBet",
      "outputs": [
        {
          "name": "",
          "type": "uint256"
        }
      ],
      "payable": false,
      "stateMutability": "view",
      "type": "function"
    },
    {
      "constant": false,
      "inputs": [
        {
          "name": "newOwner",
          "type": "address"
        }
      ],
      "name": "transferOwnership",
      "outputs": [],
      "payable": false,
      "stateMutability": "nonpayable",
      "type": "function"
    },
    {
      "inputs": [],
      "payable": false,
      "stateMutability": "nonpayable",
      "type": "constructor"
    },
    {
      "payable": true,
      "stateMutability": "payable",
      "type": "fallback"
    },
    {
      "anonymous": false,
      "inputs": [
        {
          "indexed": true,
          "name": "player",
          "type": "address"
        },
        {
          "indexed": false,
          "name": "bet_amount",
          "type": "uint256"
        },
        {
          "indexed": false,
          "name": "result_place",
          "type": "uint8"
        },
        {
          "indexed": false,
          "name": "win_amount",
          "type": "uint256"
        },
        {
          "indexed": false,
          "name": "id",
          "type": "uint256"
        }
      ],
      "name": "UserBet",
      "type": "event"
    },
    {
      "anonymous": false,
      "inputs": [
        {
          "indexed": true,
          "name": "previousOwner",
          "type": "address"
        },
        {
          "indexed": true,
          "name": "newOwner",
          "type": "address"
        }
      ],
      "name": "OwnershipTransferred",
      "type": "event"
    },
    {
      "constant": false,
      "inputs": [
        {
          "name": "win1",
          "type": "uint8"
        },
        {
          "name": "prize1",
          "type": "uint8"
        },
        {
          "name": "win2",
          "type": "uint8"
        },
        {
          "name": "prize2",
          "type": "uint8"
        },
        {
          "name": "win3",
          "type": "uint8"
        },
        {
          "name": "prize3",
          "type": "uint8"
        },
        {
          "name": "win4",
          "type": "uint8"
        },
        {
          "name": "prize4",
          "type": "uint8"
        },
        {
          "name": "win5",
          "type": "uint8"
        },
        {
          "name": "prize5",
          "type": "uint8"
        },
        {
          "name": "win6",
          "type": "uint8"
        },
        {
          "name": "prize6",
          "type": "uint8"
        }
      ],
      "name": "setPlaceBets",
      "outputs": [],
      "payable": false,
      "stateMutability": "nonpayable",
      "type": "function"
    },
    {
      "constant": true,
      "inputs": [],
      "name": "getMaxPrizeRate",
      "outputs": [
        {
          "name": "",
          "type": "uint8"
        }
      ],
      "payable": false,
      "stateMutability": "view",
      "type": "function"
    },
    {
      "constant": false,
      "inputs": [
        {
          "name": "amount",
          "type": "uint256"
        }
      ],
      "name": "userBet",
      "outputs": [],
      "payable": true,
      "stateMutability": "payable",
      "type": "function"
    },
    {
      "constant": true,
      "inputs": [],
      "name": "getRandomFactor",
      "outputs": [
        {
          "name": "",
          "type": "uint256"
        }
      ],
      "payable": false,
      "stateMutability": "view",
      "type": "function"
    },
    {
      "constant": false,
      "inputs": [
        {
          "name": "num",
          "type": "uint256"
        }
      ],
      "name": "setRandomFactor",
      "outputs": [],
      "payable": false,
      "stateMutability": "nonpayable",
      "type": "function"
    },
    {
      "constant": true,
      "inputs": [],
      "name": "getTotalUserBets",
      "outputs": [
        {
          "name": "",
          "type": "uint256"
        }
      ],
      "payable": false,
      "stateMutability": "view",
      "type": "function"
    },
    {
      "constant": true,
      "inputs": [],
      "name": "getTotalUserWin",
      "outputs": [
        {
          "name": "",
          "type": "uint256"
        }
      ],
      "payable": false,
      "stateMutability": "view",
      "type": "function"
    },
    {
      "constant": false,
      "inputs": [
        {
          "name": "num",
          "type": "uint256"
        }
      ],
      "name": "setGameMaxBet",
      "outputs": [],
      "payable": false,
      "stateMutability": "nonpayable",
      "type": "function"
    },
    {
      "constant": false,
      "inputs": [
        {
          "name": "num",
          "type": "uint256"
        }
      ],
      "name": "setGameMinBet",
      "outputs": [],
      "payable": false,
      "stateMutability": "nonpayable",
      "type": "function"
    },
    {
      "constant": false,
      "inputs": [
        {
          "name": "amount",
          "type": "uint256"
        }
      ],
      "name": "withdraw",
      "outputs": [],
      "payable": false,
      "stateMutability": "nonpayable",
      "type": "function"
    }
  ],
  "bytecode": "0x608060405234801561001057600080fd5b50336000806101000a81548173ffffffffffffffffffffffffffffffffffffffff021916908373ffffffffffffffffffffffffffffffffffffffff1602179055506000809054906101000a900473ffffffffffffffffffffffffffffffffffffffff1673ffffffffffffffffffffffffffffffffffffffff16600073ffffffffffffffffffffffffffffffffffffffff167f8be0079c531659141344cd1fd0a4f28419497f9722a3daafe3b4186f6b6457e060405160405180910390a36100ee600a426103e46401000000000261156e179091906401000000009004565b6003819055506377359400600781905550620f42406008819055506040805190810160405280601860ff168152602001600060ff1681525060016000600160ff16815260200190815260200160002060008201518160000160006101000a81548160ff021916908360ff16021790555060208201518160000160016101000a81548160ff021916908360ff1602179055509050506040805190810160405280600f60ff168152602001600260ff1681525060016000600260ff16815260200190815260200160002060008201518160000160006101000a81548160ff021916908360ff16021790555060208201518160000160016101000a81548160ff021916908360ff1602179055509050506040805190810160405280601660ff168152602001600060ff1681525060016000600360ff16815260200190815260200160002060008201518160000160006101000a81548160ff021916908360ff16021790555060208201518160000160016101000a81548160ff021916908360ff1602179055509050506040805190810160405280600c60ff168152602001600360ff1681525060016000600460ff16815260200190815260200160002060008201518160000160006101000a81548160ff021916908360ff16021790555060208201518160000160016101000a81548160ff021916908360ff1602179055509050506040805190810160405280601660ff168152602001600060ff1681525060016000600560ff16815260200190815260200160002060008201518160000160006101000a81548160ff021916908360ff16021790555060208201518160000160016101000a81548160ff021916908360ff1602179055509050506040805190810160405280600560ff168152602001600560ff1681525060016000600660ff16815260200190815260200160002060008201518160000160006101000a81548160ff021916908360ff16021790555060208201518160000160016101000a81548160ff021916908360ff160217905550905050610409565b60008082141515156103f557600080fd5b818381151561040057fe5b06905092915050565b6116b9806104186000396000f300608060405260043610610107576000357c0100000000000000000000000000000000000000000000000000000000900463ffffffff16806322af00fa1461010957806328a5190c146101985780632e1a7d4d146101c357806338766a6c146101f05780633bea3da21461021b57806359b63f6c1461024c5780635ec24f2014610279578063715018a6146102d0578063831bc058146102e75780638da5cb5b146103125780638f32d59b146103695780639c96990914610398578063b14ae094146103c3578063baf342e2146103e3578063bbf7156614610410578063d504cb651461043b578063e40c592a14610466578063eaf5a7df14610525578063f2fde38b14610552575b005b34801561011557600080fd5b5061013460048036038101908080359060200190929190505050610595565b604051808673ffffffffffffffffffffffffffffffffffffffff1673ffffffffffffffffffffffffffffffffffffffff1681526020018581526020018460ff1660ff1681526020018381526020018281526020019550505050505060405180910390f35b3480156101a457600080fd5b506101ad6105f8565b6040518082815260200191505060405180910390f35b3480156101cf57600080fd5b506101ee60048036038101908080359060200190929190505050610615565b005b3480156101fc57600080fd5b5061020561069f565b6040518082815260200191505060405180910390f35b34801561022757600080fd5b506102306106a5565b604051808260ff1660ff16815260200191505060405180910390f35b34801561025857600080fd5b5061027760048036038101908080359060200190929190505050610738565b005b34801561028557600080fd5b506102a7600480360381019080803560ff169060200190929190505050610755565b604051808360ff1660ff1681526020018260ff1660ff1681526020019250505060405180910390f35b3480156102dc57600080fd5b506102e5610793565b005b3480156102f357600080fd5b506102fc610865565b6040518082815260200191505060405180910390f35b34801561031e57600080fd5b50610327610882565b604051808273ffffffffffffffffffffffffffffffffffffffff1673ffffffffffffffffffffffffffffffffffffffff16815260200191505060405180910390f35b34801561037557600080fd5b5061037e6108ab565b604051808215151515815260200191505060405180910390f35b3480156103a457600080fd5b506103ad610902565b6040518082815260200191505060405180910390f35b6103e16004803603810190808035906020019092919050505061091f565b005b3480156103ef57600080fd5b5061040e60048036038101908080359060200190929190505050610fd1565b005b34801561041c57600080fd5b50610425610fee565b6040518082815260200191505060405180910390f35b34801561044757600080fd5b50610450610ff4565b6040518082815260200191505060405180910390f35b34801561047257600080fd5b50610523600480360381019080803560ff169060200190929190803560ff169060200190929190803560ff169060200190929190803560ff169060200190929190803560ff169060200190929190803560ff169060200190929190803560ff169060200190929190803560ff169060200190929190803560ff169060200190929190803560ff169060200190929190803560ff169060200190929190803560ff169060200190929190505050610ffa565b005b34801561053157600080fd5b50610550600480360381019080803590602001909291905050506114aa565b005b34801561055e57600080fd5b50610593600480360381019080803573ffffffffffffffffffffffffffffffffffffffff1690602001909291905050506114c7565b005b60026020528060005260406000206000915090508060000160009054906101000a900473ffffffffffffffffffffffffffffffffffffffff16908060010154908060020160009054906101000a900460ff16908060030154908060040154905085565b60006106026108ab565b151561060d57600080fd5b600354905090565b61061d6108ab565b151561062857600080fd5b3073ffffffffffffffffffffffffffffffffffffffff1631811115151561064e57600080fd5b610656610882565b73ffffffffffffffffffffffffffffffffffffffff166108fc829081150290604051600060405180830381858888f1935050505015801561069b573d6000803e3d6000fd5b5050565b60085481565b6000806000809150600190505b60068160ff16111515610730578160ff16600160008360ff1660ff16815260200190815260200160002060000160019054906101000a900460ff1660ff16111561072357600160008260ff1660ff16815260200190815260200160002060000160019054906101000a900460ff1691505b80806001019150506106b2565b819250505090565b6107406108ab565b151561074b57600080fd5b8060088190555050565b60016020528060005260406000206000915090508060000160009054906101000a900460ff16908060000160019054906101000a900460ff16905082565b61079b6108ab565b15156107a657600080fd5b600073ffffffffffffffffffffffffffffffffffffffff166000809054906101000a900473ffffffffffffffffffffffffffffffffffffffff1673ffffffffffffffffffffffffffffffffffffffff167f8be0079c531659141344cd1fd0a4f28419497f9722a3daafe3b4186f6b6457e060405160405180910390a360008060006101000a81548173ffffffffffffffffffffffffffffffffffffffff021916908373ffffffffffffffffffffffffffffffffffffffff160217905550565b600061086f6108ab565b151561087a57600080fd5b600554905090565b60008060009054906101000a900473ffffffffffffffffffffffffffffffffffffffff16905090565b60008060009054906101000a900473ffffffffffffffffffffffffffffffffffffffff1673ffffffffffffffffffffffffffffffffffffffff163373ffffffffffffffffffffffffffffffffffffffff1614905090565b600061090c6108ab565b151561091757600080fd5b600454905090565b6000806000806000806000806000808a3410156109a4576040517f08c379a000000000000000000000000000000000000000000000000000000000815260040180806020018281038252601c8152602001807f596f75206e6f7420656e6f756768205452582070726f76696465642e0000000081525060200191505060405180910390fd5b6008548b1015610a42576040517f08c379a00000000000000000000000000000000000000000000000000000000081526004018080602001828103825260398152602001807f596f7520706c616365207468652062657420616d6f756e7420736d616c6c657281526020017f207468616e20746865206d696e696d756d20616d6f756e742e0000000000000081525060400191505060405180910390fd5b6007548b1115610ae0576040517f08c379a00000000000000000000000000000000000000000000000000000000081526004018080602001828103825260378152602001807f596f7520736574207468652062657420616d6f756e742067726561746572207481526020017f68616e20746865206d6178696d756d20616d6f756e742e00000000000000000081525060400191505060405180910390fd5b3073ffffffffffffffffffffffffffffffffffffffff1631610b15610b036106a5565b60ff168d6114e690919063ffffffff16565b1115610baf576040517f08c379a00000000000000000000000000000000000000000000000000000000081526004018080602001828103825260268152602001807f5468697320636f6e7472616374206e6f7420656e6f756768205452582070726f81526020017f76696465642e000000000000000000000000000000000000000000000000000081525060400191505060405180910390fd5b610bc48b60045461152490919063ffffffff16565b600481905550610bd2611545565b9950610c0f610bfe6001610bf0600a8e61156e90919063ffffffff16565b61152490919063ffffffff16565b60035461152490919063ffffffff16565b600381905550610c2960648b61156e90919063ffffffff16565b985060016000600160ff16815260200190815260200160002060000160009054906101000a900460ff1697508760016000600260ff16815260200190815260200160002060000160009054906101000a900460ff160196508660016000600360ff16815260200190815260200160002060000160009054906101000a900460ff160195508560016000600460ff16815260200190815260200160002060000160009054906101000a900460ff160194508460016000600560ff16815260200190815260200160002060000160009054906101000a900460ff16019350600092506001880360ff16891015610d205760019250610d85565b6001870360ff16891015610d375760029250610d84565b6001860360ff16891015610d4e5760039250610d83565b6001850360ff16891015610d655760049250610d82565b6001840360ff16891015610d7c5760059250610d81565b600692505b5b5b5b5b600091506000600160008560ff1660ff16815260200190815260200160002060000160019054906101000a900460ff1660ff161115610e6257610dfd600160008560ff1660ff16815260200190815260200160002060000160019054906101000a900460ff1660ff168c6114e690919063ffffffff16565b9150610e148260055461152490919063ffffffff16565b6005819055503373ffffffffffffffffffffffffffffffffffffffff166108fc839081150290604051600060405180830381858888f19350505050158015610e60573d6000803e3d6000fd5b505b60a0604051908101604052803373ffffffffffffffffffffffffffffffffffffffff1681526020018c81526020018460ff1681526020018381526020014281525060026000600654815260200190815260200160002060008201518160000160006101000a81548173ffffffffffffffffffffffffffffffffffffffff021916908373ffffffffffffffffffffffffffffffffffffffff1602179055506020820151816001015560408201518160020160006101000a81548160ff021916908360ff160217905550606082015181600301556080820151816004015590505060065490503373ffffffffffffffffffffffffffffffffffffffff167fb20326f78f0e6fd2a95ed25313bd767cca0f56be010356e20aafba99cf7863388c858585604051808581526020018460ff1660ff16815260200183815260200182815260200194505050505060405180910390a26006600081548092919060010191905055505050505050505050505050565b610fd96108ab565b1515610fe457600080fd5b8060038190555050565b60075481565b60065481565b6110026108ab565b151561100d57600080fd5b60008c60ff161480611022575060008a60ff16145b80611030575060008860ff16145b8061103e575060008660ff16145b8061104c575060008460ff16145b8061105a575060008260ff16145b156110cd576040517f08c379a00000000000000000000000000000000000000000000000000000000081526004018080602001828103825260158152602001807f6572726f722077696e50726f626162696c6974792e000000000000000000000081525060200191505060405180910390fd5b60148b60ff1611806110e2575060148960ff16115b806110f0575060148760ff16115b806110fe575060148560ff16115b8061110c575060148360ff16115b8061111a575060148160ff16115b1561118d576040517f08c379a00000000000000000000000000000000000000000000000000000000081526004018080602001828103825260108152602001807f6572726f72207072697a65526174652e0000000000000000000000000000000081525060200191505060405180910390fd5b60648c8386898c8f010101010160ff16141515611238576040517f08c379a00000000000000000000000000000000000000000000000000000000081526004018080602001828103825260228152602001807f6572726f7220746f74616c2077696e50726f626162696c69747920213d20313081526020017f302e00000000000000000000000000000000000000000000000000000000000081525060400191505060405180910390fd5b8b60016000600160ff16815260200190815260200160002060000160006101000a81548160ff021916908360ff1602179055508a60016000600160ff16815260200190815260200160002060000160016101000a81548160ff021916908360ff1602179055508960016000600260ff16815260200190815260200160002060000160006101000a81548160ff021916908360ff1602179055508860016000600260ff16815260200190815260200160002060000160016101000a81548160ff021916908360ff1602179055508760016000600360ff16815260200190815260200160002060000160006101000a81548160ff021916908360ff1602179055508660016000600360ff16815260200190815260200160002060000160016101000a81548160ff021916908360ff1602179055508560016000600460ff16815260200190815260200160002060000160006101000a81548160ff021916908360ff1602179055508460016000600460ff16815260200190815260200160002060000160016101000a81548160ff021916908360ff1602179055508360016000600560ff16815260200190815260200160002060000160006101000a81548160ff021916908360ff1602179055508260016000600560ff16815260200190815260200160002060000160016101000a81548160ff021916908360ff1602179055508160016000600660ff16815260200190815260200160002060000160006101000a81548160ff021916908360ff1602179055508060016000600660ff16815260200190815260200160002060000160016101000a81548160ff021916908360ff160217905550505050505050505050505050565b6114b26108ab565b15156114bd57600080fd5b8060078190555050565b6114cf6108ab565b15156114da57600080fd5b6114e381611593565b50565b60008060008414156114fb576000915061151d565b828402905082848281151561150c57fe5b0414151561151957600080fd5b8091505b5092915050565b600080828401905083811015151561153b57600080fd5b8091505092915050565b600060035461155e60644261156e90919063ffffffff16565b6001430303406001900401905090565b600080821415151561157f57600080fd5b818381151561158a57fe5b06905092915050565b600073ffffffffffffffffffffffffffffffffffffffff168173ffffffffffffffffffffffffffffffffffffffff16141515156115cf57600080fd5b8073ffffffffffffffffffffffffffffffffffffffff166000809054906101000a900473ffffffffffffffffffffffffffffffffffffffff1673ffffffffffffffffffffffffffffffffffffffff167f8be0079c531659141344cd1fd0a4f28419497f9722a3daafe3b4186f6b6457e060405160405180910390a3806000806101000a81548173ffffffffffffffffffffffffffffffffffffffff021916908373ffffffffffffffffffffffffffffffffffffffff160217905550505600a165627a7a7230582075ca776eae2e6141236c080f362ba75d0e0995f7f3b87b0efe2ab914fe2ad1a00029",
  "source": "pragma solidity ^0.4.23;\r\n\r\nimport \"./SafeMath.sol\";\r\nimport \"./Ownable.sol\";\r\n\r\n//\r\ncontract ZigZag is Ownable {\r\n\tusing SafeMath for uint;\r\n\r\n\tstruct PlaceBet{\r\n\t\tuint8 winProbability;//probability of winning 1% -> 100%\r\n\t\tuint8 prizeRate;//ex: x0, x2, x5....\r\n\t}\r\n\r\n\tstruct Bet{\r\n\t\taddress player;\r\n\t\tuint bet_amount;\r\n\t\tuint8 result_place;\r\n\t\tuint win_amount; \r\n\t\tuint time;\r\n\t}\r\n\r\n    \tmapping(uint8 => PlaceBet) public placeBets;\r\n    \tmapping(uint => Bet) public bets;\r\n\r\n\tuint private randomFactor;\r\n\tuint private totalUserBets;\r\n\tuint private totalUserWin;\r\n\r\n\tuint public currentBet;\r\n\tuint public gameMaxBet;\r\n\tuint public gameMinBet;\r\n\r\n\tevent UserBet(address indexed player, uint bet_amount, uint8 result_place, uint win_amount, uint id);\r\n\r\n\t//contract constructor\r\n\tconstructor() public {\r\n\t\trandomFactor = now.mod(10);\r\n\t\tgameMaxBet = 2000000000;//2000 TRX\r\n\t\tgameMinBet = 1000000;//1 TRX\r\n\t\tplaceBets[1] = PlaceBet({winProbability: 24, prizeRate: 0});\r\n\t\tplaceBets[2] = PlaceBet({winProbability: 15, prizeRate: 2});//x2\r\n\t\tplaceBets[3] = PlaceBet({winProbability: 22, prizeRate: 0});\r\n\t\tplaceBets[4] = PlaceBet({winProbability: 12, prizeRate: 3});//x3\r\n\t\tplaceBets[5] = PlaceBet({winProbability: 22, prizeRate: 0});\r\n\t\tplaceBets[6] = PlaceBet({winProbability: 5, prizeRate: 5});//x5\r\n\t\t// 6 placeBet => total winProbability = 100 (100%)\r\n\t\t//1: 0->23, 2: 24->38, 3: 39->60, 4: 61->72, 5: 73->94, 6: 95->99\r\n\t}\r\n\r\n\tfunction setPlaceBets(\r\n\t\tuint8 win1, uint8 prize1, \r\n\t\tuint8 win2, uint8 prize2, \r\n\t\tuint8 win3, uint8 prize3, \r\n\t\tuint8 win4, uint8 prize4,\r\n\t\tuint8 win5, uint8 prize5,\r\n\t\tuint8 win6, uint8 prize6\r\n\t) public onlyOwner {\r\n\t    \tif (win1==0 || win2==0 || win3==0 || win4==0 || win5==0 || win6==0) revert(\"error winProbability.\");\r\n\t    \tif (prize1>20 || prize2>20 || prize3>20 || prize4>20 || prize5>20 || prize6>20) revert(\"error prizeRate.\");\r\n\t    \tif ((win2 + win3 + win4 + win5 + win6 + win1) != 100) revert(\"error total winProbability != 100.\");\r\n\t\tplaceBets[1].winProbability = win1;\r\n\t\tplaceBets[1].prizeRate = prize1;\r\n\t\tplaceBets[2].winProbability = win2;\r\n\t\tplaceBets[2].prizeRate = prize2;\r\n\t\tplaceBets[3].winProbability = win3;\r\n\t\tplaceBets[3].prizeRate = prize3;\r\n\t\tplaceBets[4].winProbability = win4;\r\n\t\tplaceBets[4].prizeRate = prize4;\r\n\t\tplaceBets[5].winProbability = win5;\r\n\t\tplaceBets[5].prizeRate = prize5;\r\n\t\tplaceBets[6].winProbability = win6;\r\n\t\tplaceBets[6].prizeRate = prize6;\r\n\t}\r\n\r\n\r\n\tfunction getMaxPrizeRate() public view returns(uint8) {\r\n\t\tuint8 maxRate = 0;\r\n\t\tfor(uint8 i = 1; i <= 6; i++){\r\n\t\t\tif(placeBets[i].prizeRate > maxRate)maxRate = placeBets[i].prizeRate;\r\n\t\t}\r\n        \treturn maxRate;\r\n\t}\r\n\r\n\t//\r\n\tfunction userBet(uint amount) public payable {\r\n\t\tif (msg.value < amount) revert(\"You not enough TRX provided.\");\r\n\t\tif (amount < gameMinBet) revert(\"You place the bet amount smaller than the minimum amount.\");\r\n\t\tif (amount > gameMaxBet) revert(\"You set the bet amount greater than the maximum amount.\");\r\n\t\tif (amount.mul(getMaxPrizeRate()) > address(this).balance) revert(\"This contract not enough TRX provided.\");\r\n        \ttotalUserBets = totalUserBets.add(amount);\r\n\t\tuint random_number = random_uint();\r\n\t\trandomFactor = randomFactor.add(random_number.mod(10).add(1));\r\n\t\tuint result_number = random_number.mod(100);\r\n\t\t//\r\n\t\tuint8 winMaxNumber_1 = placeBets[1].winProbability;\r\n\t\tuint8 winMaxNumber_2 = placeBets[2].winProbability + winMaxNumber_1;\r\n\t\tuint8 winMaxNumber_3 = placeBets[3].winProbability + winMaxNumber_2;\r\n\t\tuint8 winMaxNumber_4 = placeBets[4].winProbability + winMaxNumber_3;\r\n\t\tuint8 winMaxNumber_5 = placeBets[5].winProbability + winMaxNumber_4;\r\n\t\t//uint8 winMaxNumber_6 = placeBets[6].winProbability.add(winMaxNumber_5);//100\r\n\t\tuint8 result_place = 0;\r\n\t\tif(result_number < winMaxNumber_1-1){//0 to winMaxNumber_1-1\r\n\t\t    result_place = 1;\r\n\t\t} else if(result_number < winMaxNumber_2-1){\r\n\t\t    result_place = 2;\r\n\t\t} else if(result_number < winMaxNumber_3-1){\r\n\t\t    result_place = 3;\r\n\t\t} else if(result_number < winMaxNumber_4-1){\r\n\t\t    result_place = 4;\r\n\t\t} else if(result_number < winMaxNumber_5-1){\r\n\t\t    result_place = 5;\r\n\t\t} else{//winMaxNumber_5 to 99\r\n\t\t    result_place = 6;\r\n\t\t}\r\n\r\n\t\tuint win_amount = 0;\r\n\t\tif(placeBets[result_place].prizeRate > 0){\r\n\t\t\twin_amount = amount.mul(placeBets[result_place].prizeRate);\r\n\t\t\ttotalUserWin = totalUserWin.add(win_amount);\r\n\t\t\tmsg.sender.transfer(win_amount);\r\n\t\t}\r\n\t\tbets[currentBet] = Bet(\r\n\t\t{\r\n\t\t\tplayer: msg.sender,\r\n\t\t\tbet_amount: amount,\r\n\t\t\tresult_place: result_place,\r\n\t\t\twin_amount: win_amount,\r\n\t\t\ttime: now\r\n\t\t});\r\n        \tuint id = currentBet;\r\n\t\temit UserBet(msg.sender, amount, result_place, win_amount, id);\r\n\t\tcurrentBet++;\r\n\t}\r\n\r\n\tfunction getRandomFactor() public onlyOwner view returns(uint) {\r\n        \treturn randomFactor;\r\n\t}\r\n\r\n\tfunction setRandomFactor(uint num) public onlyOwner {\r\n        \trandomFactor = num;\r\n\t}\r\n\r\n\tfunction getTotalUserBets() public onlyOwner view returns(uint) {\r\n        \treturn totalUserBets;\r\n\t}\r\n\r\n\tfunction getTotalUserWin() public onlyOwner view returns(uint) {\r\n        \treturn totalUserWin;\r\n\t}\r\n\r\n\r\n\tfunction setGameMaxBet(uint num) public onlyOwner {\r\n        \tgameMaxBet = num;\r\n\t}\r\n\r\n\tfunction setGameMinBet(uint num) public onlyOwner {\r\n        \tgameMinBet = num;\r\n\t}\r\n\t//random\r\n\tfunction random_uint() private view returns (uint256) {\r\n\t\treturn uint256(blockhash(block.number-1-block.timestamp.mod(100))) + randomFactor;\r\n\t}\r\n\r\n\t//withdraw\r\n\tfunction withdraw(uint amount) public onlyOwner {\r\n\t\trequire(amount <= address(this).balance);\r\n\t\towner().transfer(amount);\r\n\t}\r\n\r\n    \tfunction() public payable{}\r\n}\r\n",
  "sourcePath": "C:\\wamp64\\www\\Working\\Blockchain\\Tron\\Zigzag\\contracts\\ZigZag.sol",
  "compiler": {
    "name": "solc",
    "version": "0.4.24-develop.2018.8.28+commit.3ba0cdec.mod.Emscripten.clang"
  },
  "schemaVersion": "2.0.1",
  "updatedAt": "2019-01-02T15:42:35.826Z"
}